{
  "contractName": "Petshop",
  "abi": [
    {
      "inputs": [],
      "payable": false,
      "stateMutability": "nonpayable",
      "type": "constructor"
    },
    {
      "anonymous": false,
      "inputs": [
        {
          "indexed": false,
          "internalType": "uint256",
          "name": "id",
          "type": "uint256"
        },
        {
          "indexed": false,
          "internalType": "string",
          "name": "name",
          "type": "string"
        },
        {
          "indexed": false,
          "internalType": "string",
          "name": "breed",
          "type": "string"
        },
        {
          "indexed": false,
          "internalType": "uint256",
          "name": "age",
          "type": "uint256"
        },
        {
          "indexed": false,
          "internalType": "string",
          "name": "location",
          "type": "string"
        },
        {
          "indexed": false,
          "internalType": "string",
          "name": "picture",
          "type": "string"
        },
        {
          "indexed": false,
          "internalType": "uint256",
          "name": "price",
          "type": "uint256"
        },
        {
          "indexed": false,
          "internalType": "address payable",
          "name": "owner",
          "type": "address"
        },
        {
          "indexed": false,
          "internalType": "bool",
          "name": "purchased",
          "type": "bool"
        }
      ],
      "name": "PetCreated",
      "type": "event"
    },
    {
      "anonymous": false,
      "inputs": [
        {
          "indexed": false,
          "internalType": "uint256",
          "name": "id",
          "type": "uint256"
        },
        {
          "indexed": false,
          "internalType": "string",
          "name": "name",
          "type": "string"
        },
        {
          "indexed": false,
          "internalType": "string",
          "name": "breed",
          "type": "string"
        },
        {
          "indexed": false,
          "internalType": "uint256",
          "name": "age",
          "type": "uint256"
        },
        {
          "indexed": false,
          "internalType": "string",
          "name": "location",
          "type": "string"
        },
        {
          "indexed": false,
          "internalType": "string",
          "name": "picture",
          "type": "string"
        },
        {
          "indexed": false,
          "internalType": "uint256",
          "name": "price",
          "type": "uint256"
        },
        {
          "indexed": false,
          "internalType": "address payable",
          "name": "owner",
          "type": "address"
        },
        {
          "indexed": false,
          "internalType": "bool",
          "name": "purchased",
          "type": "bool"
        }
      ],
      "name": "PetPurchased",
      "type": "event"
    },
    {
      "anonymous": false,
      "inputs": [
        {
          "indexed": true,
          "internalType": "uint256",
          "name": "_candidateId",
          "type": "uint256"
        }
      ],
      "name": "votedEvent",
      "type": "event"
    },
    {
      "payable": true,
      "stateMutability": "payable",
      "type": "fallback"
    },
    {
      "constant": true,
      "inputs": [
        {
          "internalType": "uint256",
          "name": "",
          "type": "uint256"
        }
      ],
      "name": "adopters",
      "outputs": [
        {
          "internalType": "address",
          "name": "",
          "type": "address"
        }
      ],
      "payable": false,
      "stateMutability": "view",
      "type": "function"
    },
    {
      "constant": true,
      "inputs": [
        {
          "internalType": "uint256",
          "name": "",
          "type": "uint256"
        }
      ],
      "name": "candidates",
      "outputs": [
        {
          "internalType": "uint256",
          "name": "id",
          "type": "uint256"
        },
        {
          "internalType": "string",
          "name": "name",
          "type": "string"
        },
        {
          "internalType": "uint256",
          "name": "voteCount",
          "type": "uint256"
        }
      ],
      "payable": false,
      "stateMutability": "view",
      "type": "function"
    },
    {
      "constant": true,
      "inputs": [],
      "name": "candidatesCount",
      "outputs": [
        {
          "internalType": "uint256",
          "name": "",
          "type": "uint256"
        }
      ],
      "payable": false,
      "stateMutability": "view",
      "type": "function"
    },
    {
      "constant": true,
      "inputs": [],
      "name": "functionCalled",
      "outputs": [
        {
          "internalType": "string",
          "name": "",
          "type": "string"
        }
      ],
      "payable": false,
      "stateMutability": "view",
      "type": "function"
    },
    {
      "constant": true,
      "inputs": [],
      "name": "petCount",
      "outputs": [
        {
          "internalType": "uint256",
          "name": "",
          "type": "uint256"
        }
      ],
      "payable": false,
      "stateMutability": "view",
      "type": "function"
    },
    {
      "constant": true,
      "inputs": [
        {
          "internalType": "uint256",
          "name": "",
          "type": "uint256"
        }
      ],
      "name": "pets",
      "outputs": [
        {
          "internalType": "uint256",
          "name": "id",
          "type": "uint256"
        },
        {
          "internalType": "string",
          "name": "name",
          "type": "string"
        },
        {
          "internalType": "string",
          "name": "breed",
          "type": "string"
        },
        {
          "internalType": "uint256",
          "name": "age",
          "type": "uint256"
        },
        {
          "internalType": "string",
          "name": "location",
          "type": "string"
        },
        {
          "internalType": "string",
          "name": "picture",
          "type": "string"
        },
        {
          "internalType": "uint256",
          "name": "price",
          "type": "uint256"
        },
        {
          "internalType": "address payable",
          "name": "owner",
          "type": "address"
        },
        {
          "internalType": "bool",
          "name": "purchased",
          "type": "bool"
        }
      ],
      "payable": false,
      "stateMutability": "view",
      "type": "function"
    },
    {
      "constant": true,
      "inputs": [
        {
          "internalType": "address",
          "name": "",
          "type": "address"
        }
      ],
      "name": "voters",
      "outputs": [
        {
          "internalType": "bool",
          "name": "",
          "type": "bool"
        }
      ],
      "payable": false,
      "stateMutability": "view",
      "type": "function"
    },
    {
      "constant": false,
      "inputs": [
        {
          "internalType": "uint256",
          "name": "petId",
          "type": "uint256"
        }
      ],
      "name": "adopt",
      "outputs": [
        {
          "internalType": "uint256",
          "name": "",
          "type": "uint256"
        }
      ],
      "payable": false,
      "stateMutability": "nonpayable",
      "type": "function"
    },
    {
      "constant": true,
      "inputs": [],
      "name": "getAdopters",
      "outputs": [
        {
          "internalType": "address[16]",
          "name": "",
          "type": "address[16]"
        }
      ],
      "payable": false,
      "stateMutability": "view",
      "type": "function"
    },
    {
      "constant": false,
      "inputs": [
        {
          "internalType": "string",
          "name": "_name",
          "type": "string"
        },
        {
          "internalType": "string",
          "name": "_breed",
          "type": "string"
        },
        {
          "internalType": "uint256",
          "name": "_age",
          "type": "uint256"
        },
        {
          "internalType": "string",
          "name": "_location",
          "type": "string"
        },
        {
          "internalType": "string",
          "name": "_picture",
          "type": "string"
        },
        {
          "internalType": "uint256",
          "name": "_price",
          "type": "uint256"
        }
      ],
      "name": "createPet",
      "outputs": [],
      "payable": false,
      "stateMutability": "nonpayable",
      "type": "function"
    },
    {
      "constant": false,
      "inputs": [
        {
          "internalType": "uint256",
          "name": "_id",
          "type": "uint256"
        }
      ],
      "name": "purchasePet",
      "outputs": [],
      "payable": true,
      "stateMutability": "payable",
      "type": "function"
    },
    {
      "constant": false,
      "inputs": [],
      "name": "receiveEther",
      "outputs": [],
      "payable": true,
      "stateMutability": "payable",
      "type": "function"
    },
    {
      "constant": false,
      "inputs": [
        {
          "internalType": "uint256",
          "name": "_candidateId",
          "type": "uint256"
        }
      ],
      "name": "vote",
      "outputs": [],
      "payable": false,
      "stateMutability": "nonpayable",
      "type": "function"
    }
  ],
  "bytecode": "0x608060405260006010553480156200001657600080fd5b506200005d6040518060400160405280600781526020017f70657469642030000000000000000000000000000000000000000000000000008152506200047d60201b60201c565b620000a36040518060400160405280600781526020017f70657469642031000000000000000000000000000000000000000000000000008152506200047d60201b60201c565b620000e96040518060400160405280600781526020017f70657469642032000000000000000000000000000000000000000000000000008152506200047d60201b60201c565b6200012f6040518060400160405280600781526020017f70657469642033000000000000000000000000000000000000000000000000008152506200047d60201b60201c565b620001756040518060400160405280600781526020017f70657469642034000000000000000000000000000000000000000000000000008152506200047d60201b60201c565b620001bb6040518060400160405280600781526020017f70657469642035000000000000000000000000000000000000000000000000008152506200047d60201b60201c565b620002016040518060400160405280600781526020017f70657469642036000000000000000000000000000000000000000000000000008152506200047d60201b60201c565b620002476040518060400160405280600781526020017f70657469642037000000000000000000000000000000000000000000000000008152506200047d60201b60201c565b6200028d6040518060400160405280600781526020017f70657469642038000000000000000000000000000000000000000000000000008152506200047d60201b60201c565b620002d36040518060400160405280600781526020017f70657469642039000000000000000000000000000000000000000000000000008152506200047d60201b60201c565b620003196040518060400160405280600881526020017f70657469642031300000000000000000000000000000000000000000000000008152506200047d60201b60201c565b6200035f6040518060400160405280600881526020017f70657469642031310000000000000000000000000000000000000000000000008152506200047d60201b60201c565b620003a56040518060400160405280600881526020017f70657469642031320000000000000000000000000000000000000000000000008152506200047d60201b60201c565b620003eb6040518060400160405280600881526020017f70657469642031330000000000000000000000000000000000000000000000008152506200047d60201b60201c565b620004316040518060400160405280600881526020017f70657469642031340000000000000000000000000000000000000000000000008152506200047d60201b60201c565b620004776040518060400160405280600881526020017f70657469642031350000000000000000000000000000000000000000000000008152506200047d60201b60201c565b620005aa565b601560008154809291906001019190505550604051806060016040528060155481526020018281526020016000815250601460006015548152602001908152602001600020600082015181600001556020820151816001019080519060200190620004ea929190620004fb565b506040820151816002015590505050565b828054600181600116156101000203166002900490600052602060002090601f016020900481019282601f106200053e57805160ff19168380011785556200056f565b828001600101855582156200056f579182015b828111156200056e57825182559160200191906001019062000551565b5b5090506200057e919062000582565b5090565b620005a791905b80821115620005a357600081600090555060010162000589565b5090565b90565b611e5280620005ba6000396000f3fe6080604052600436106100c25760003560e01c80638588b2c51161007f578063ca7f909611610059578063ca7f909614610669578063cc81afc814610697578063cd619f5814610727578063cfb869bf14610752576100c2565b80638588b2c5146105a7578063a3912ec8146105f6578063a3ec138d14610600576100c2565b80630121b93f146101105780632d35a8a21461014b5780633477ee2e146101765780633de4eb171461023857806343ae80d31461028b57806367aadc4114610306575b6040518060400160405280600881526020017f66616c6c6261636b0000000000000000000000000000000000000000000000008152506012908051906020019061010d929190611c71565b50005b34801561011c57600080fd5b506101496004803603602081101561013357600080fd5b810190808035906020019092919050505061099d565b005b34801561015757600080fd5b50610160610abd565b6040518082815260200191505060405180910390f35b34801561018257600080fd5b506101af6004803603602081101561019957600080fd5b8101908080359060200190929190505050610ac3565b6040518084815260200180602001838152602001828103825284818151815260200191508051906020019080838360005b838110156101fb5780820151818401526020810190506101e0565b50505050905090810190601f1680156102285780820380516001836020036101000a031916815260200191505b5094505050505060405180910390f35b34801561024457600080fd5b5061024d610b85565b6040518082601060200280838360005b8381101561027857808201518184015260208101905061025d565b5050505090500191505060405180910390f35b34801561029757600080fd5b506102c4600480360360208110156102ae57600080fd5b8101908080359060200190929190505050610c06565b604051808273ffffffffffffffffffffffffffffffffffffffff1673ffffffffffffffffffffffffffffffffffffffff16815260200191505060405180910390f35b34801561031257600080fd5b506105a5600480360360c081101561032957600080fd5b810190808035906020019064010000000081111561034657600080fd5b82018360208201111561035857600080fd5b8035906020019184600183028401116401000000008311171561037a57600080fd5b91908080601f016020809104026020016040519081016040528093929190818152602001838380828437600081840152601f19601f820116905080830192505050505050509192919290803590602001906401000000008111156103dd57600080fd5b8201836020820111156103ef57600080fd5b8035906020019184600183028401116401000000008311171561041157600080fd5b91908080601f016020809104026020016040519081016040528093929190818152602001838380828437600081840152601f19601f820116905080830192505050505050509192919290803590602001909291908035906020019064010000000081111561047e57600080fd5b82018360208201111561049057600080fd5b803590602001918460018302840111640100000000831117156104b257600080fd5b91908080601f016020809104026020016040519081016040528093929190818152602001838380828437600081840152601f19601f8201169050808301925050505050505091929192908035906020019064010000000081111561051557600080fd5b82018360208201111561052757600080fd5b8035906020019184600183028401116401000000008311171561054957600080fd5b91908080601f016020809104026020016040519081016040528093929190818152602001838380828437600081840152601f19601f82011690508083019250505050505050919291929080359060200190929190505050610c39565b005b3480156105b357600080fd5b506105e0600480360360208110156105ca57600080fd5b8101908080359060200190929190505050611050565b6040518082815260200191505060405180910390f35b6105fe6110c1565b005b34801561060c57600080fd5b5061064f6004803603602081101561062357600080fd5b81019080803573ffffffffffffffffffffffffffffffffffffffff16906020019092919050505061110f565b604051808215151515815260200191505060405180910390f35b6106956004803603602081101561067f57600080fd5b810190808035906020019092919050505061112f565b005b3480156106a357600080fd5b506106ac6118f2565b6040518080602001828103825283818151815260200191508051906020019080838360005b838110156106ec5780820151818401526020810190506106d1565b50505050905090810190601f1680156107195780820380516001836020036101000a031916815260200191505b509250505060405180910390f35b34801561073357600080fd5b5061073c611990565b6040518082815260200191505060405180910390f35b34801561075e57600080fd5b5061078b6004803603602081101561077557600080fd5b8101908080359060200190929190505050611996565b604051808a8152602001806020018060200189815260200180602001806020018881526020018773ffffffffffffffffffffffffffffffffffffffff1673ffffffffffffffffffffffffffffffffffffffff1681526020018615151515815260200185810385528d818151815260200191508051906020019080838360005b8381101561082557808201518184015260208101905061080a565b50505050905090810190601f1680156108525780820380516001836020036101000a031916815260200191505b5085810384528c818151815260200191508051906020019080838360005b8381101561088b578082015181840152602081019050610870565b50505050905090810190601f1680156108b85780820380516001836020036101000a031916815260200191505b5085810383528a818151815260200191508051906020019080838360005b838110156108f15780820151818401526020810190506108d6565b50505050905090810190601f16801561091e5780820380516001836020036101000a031916815260200191505b50858103825289818151815260200191508051906020019080838360005b8381101561095757808201518184015260208101905061093c565b50505050905090810190601f1680156109845780820380516001836020036101000a031916815260200191505b509d505050505050505050505050505060405180910390f35b601360003373ffffffffffffffffffffffffffffffffffffffff1673ffffffffffffffffffffffffffffffffffffffff16815260200190815260200160002060009054906101000a900460ff16156109f457600080fd5b600081118015610a0657506015548111155b610a0f57600080fd5b6001601360003373ffffffffffffffffffffffffffffffffffffffff1673ffffffffffffffffffffffffffffffffffffffff16815260200190815260200160002060006101000a81548160ff0219169083151502179055506014600082815260200190815260200160002060020160008154809291906001019190505550807ffff3c900d938d21d0990d786e819f29b8d05c1ef587b462b939609625b684b1660405160405180910390a250565b60155481565b6014602052806000526040600020600091509050806000015490806001018054600181600116156101000203166002900480601f016020809104026020016040519081016040528092919081815260200182805460018160011615610100020316600290048015610b755780601f10610b4a57610100808354040283529160200191610b75565b820191906000526020600020905b815481529060010190602001808311610b5857829003601f168201915b5050505050908060020154905083565b610b8d611cf1565b6000601080602002604051908101604052809291908260108015610bfc576020028201915b8160009054906101000a900473ffffffffffffffffffffffffffffffffffffffff1673ffffffffffffffffffffffffffffffffffffffff1681526020019060010190808311610bb2575b5050505050905090565b60008160108110610c1357fe5b016000915054906101000a900473ffffffffffffffffffffffffffffffffffffffff1681565b6000865111610c4757600080fd5b6000855111610c5557600080fd5b60008411610c6257600080fd5b6000835111610c7057600080fd5b6000825111610c7e57600080fd5b60008111610c8b57600080fd5b60106000815480929190600101919050555060405180610120016040528060105481526020018781526020018681526020018581526020018481526020018381526020018281526020013373ffffffffffffffffffffffffffffffffffffffff16815260200160001515815250601160006010548152602001908152602001600020600082015181600001556020820151816001019080519060200190610d33929190611d14565b506040820151816002019080519060200190610d50929190611d14565b50606082015181600301556080820151816004019080519060200190610d77929190611d14565b5060a0820151816005019080519060200190610d94929190611d14565b5060c0820151816006015560e08201518160070160006101000a81548173ffffffffffffffffffffffffffffffffffffffff021916908373ffffffffffffffffffffffffffffffffffffffff1602179055506101008201518160070160146101000a81548160ff0219169083151502179055509050507f0d18ec4133c22e5aa4a4403eacd438153118f210c221e4754bdd392054901990601054878787878787336000604051808a8152602001806020018060200189815260200180602001806020018881526020018773ffffffffffffffffffffffffffffffffffffffff1673ffffffffffffffffffffffffffffffffffffffff1681526020018615151515815260200185810385528d818151815260200191508051906020019080838360005b83811015610ed1578082015181840152602081019050610eb6565b50505050905090810190601f168015610efe5780820380516001836020036101000a031916815260200191505b5085810384528c818151815260200191508051906020019080838360005b83811015610f37578082015181840152602081019050610f1c565b50505050905090810190601f168015610f645780820380516001836020036101000a031916815260200191505b5085810383528a818151815260200191508051906020019080838360005b83811015610f9d578082015181840152602081019050610f82565b50505050905090810190601f168015610fca5780820380516001836020036101000a031916815260200191505b50858103825289818151815260200191508051906020019080838360005b83811015611003578082015181840152602081019050610fe8565b50505050905090810190601f1680156110305780820380516001836020036101000a031916815260200191505b509d505050505050505050505050505060405180910390a1505050505050565b6000808210158015611063575060108211155b61106c57600080fd5b336000836010811061107a57fe5b0160006101000a81548173ffffffffffffffffffffffffffffffffffffffff021916908373ffffffffffffffffffffffffffffffffffffffff160217905550819050919050565b6040518060400160405280600c81526020017f72656365697665457468657200000000000000000000000000000000000000008152506012908051906020019061110c929190611c71565b50565b60136020528060005260406000206000915054906101000a900460ff1681565b611137611d94565b601160008381526020019081526020016000206040518061012001604052908160008201548152602001600182018054600181600116156101000203166002900480601f0160208091040260200160405190810160405280929190818152602001828054600181600116156101000203166002900480156111f95780601f106111ce576101008083540402835291602001916111f9565b820191906000526020600020905b8154815290600101906020018083116111dc57829003601f168201915b50505050508152602001600282018054600181600116156101000203166002900480601f01602080910402602001604051908101604052809291908181526020018280546001816001161561010002031660029004801561129b5780601f106112705761010080835404028352916020019161129b565b820191906000526020600020905b81548152906001019060200180831161127e57829003601f168201915b5050505050815260200160038201548152602001600482018054600181600116156101000203166002900480601f0160208091040260200160405190810160405280929190818152602001828054600181600116156101000203166002900480156113475780601f1061131c57610100808354040283529160200191611347565b820191906000526020600020905b81548152906001019060200180831161132a57829003601f168201915b50505050508152602001600582018054600181600116156101000203166002900480601f0160208091040260200160405190810160405280929190818152602001828054600181600116156101000203166002900480156113e95780601f106113be576101008083540402835291602001916113e9565b820191906000526020600020905b8154815290600101906020018083116113cc57829003601f168201915b50505050508152602001600682015481526020016007820160009054906101000a900473ffffffffffffffffffffffffffffffffffffffff1673ffffffffffffffffffffffffffffffffffffffff1673ffffffffffffffffffffffffffffffffffffffff1681526020016007820160149054906101000a900460ff161515151581525050905060008160e001519050600082600001511180156114925750601054826000015111155b61149b57600080fd5b8160c001513410156114ac57600080fd5b816101000151156114bc57600080fd5b3373ffffffffffffffffffffffffffffffffffffffff168173ffffffffffffffffffffffffffffffffffffffff1614156114f557600080fd5b338260e0019073ffffffffffffffffffffffffffffffffffffffff16908173ffffffffffffffffffffffffffffffffffffffff16815250506001826101000190151590811515815250508160116000858152602001908152602001600020600082015181600001556020820151816001019080519060200190611579929190611d14565b506040820151816002019080519060200190611596929190611d14565b506060820151816003015560808201518160040190805190602001906115bd929190611d14565b5060a08201518160050190805190602001906115da929190611d14565b5060c0820151816006015560e08201518160070160006101000a81548173ffffffffffffffffffffffffffffffffffffffff021916908373ffffffffffffffffffffffffffffffffffffffff1602179055506101008201518160070160146101000a81548160ff0219169083151502179055509050508073ffffffffffffffffffffffffffffffffffffffff166108fc349081150290604051600060405180830381858888f19350505050158015611696573d6000803e3d6000fd5b507f0d18ec4133c22e5aa4a4403eacd438153118f210c221e4754bdd39205490199060105483602001518460400151856060015186608001518760a001518860c00151336001604051808a8152602001806020018060200189815260200180602001806020018881526020018773ffffffffffffffffffffffffffffffffffffffff1673ffffffffffffffffffffffffffffffffffffffff1681526020018615151515815260200185810385528d818151815260200191508051906020019080838360005b8381101561177657808201518184015260208101905061175b565b50505050905090810190601f1680156117a35780820380516001836020036101000a031916815260200191505b5085810384528c818151815260200191508051906020019080838360005b838110156117dc5780820151818401526020810190506117c1565b50505050905090810190601f1680156118095780820380516001836020036101000a031916815260200191505b5085810383528a818151815260200191508051906020019080838360005b83811015611842578082015181840152602081019050611827565b50505050905090810190601f16801561186f5780820380516001836020036101000a031916815260200191505b50858103825289818151815260200191508051906020019080838360005b838110156118a857808201518184015260208101905061188d565b50505050905090810190601f1680156118d55780820380516001836020036101000a031916815260200191505b509d505050505050505050505050505060405180910390a1505050565b60128054600181600116156101000203166002900480601f0160208091040260200160405190810160405280929190818152602001828054600181600116156101000203166002900480156119885780601f1061195d57610100808354040283529160200191611988565b820191906000526020600020905b81548152906001019060200180831161196b57829003601f168201915b505050505081565b60105481565b6011602052806000526040600020600091509050806000015490806001018054600181600116156101000203166002900480601f016020809104026020016040519081016040528092919081815260200182805460018160011615610100020316600290048015611a485780601f10611a1d57610100808354040283529160200191611a48565b820191906000526020600020905b815481529060010190602001808311611a2b57829003601f168201915b505050505090806002018054600181600116156101000203166002900480601f016020809104026020016040519081016040528092919081815260200182805460018160011615610100020316600290048015611ae65780601f10611abb57610100808354040283529160200191611ae6565b820191906000526020600020905b815481529060010190602001808311611ac957829003601f168201915b505050505090806003015490806004018054600181600116156101000203166002900480601f016020809104026020016040519081016040528092919081815260200182805460018160011615610100020316600290048015611b8a5780601f10611b5f57610100808354040283529160200191611b8a565b820191906000526020600020905b815481529060010190602001808311611b6d57829003601f168201915b505050505090806005018054600181600116156101000203166002900480601f016020809104026020016040519081016040528092919081815260200182805460018160011615610100020316600290048015611c285780601f10611bfd57610100808354040283529160200191611c28565b820191906000526020600020905b815481529060010190602001808311611c0b57829003601f168201915b5050505050908060060154908060070160009054906101000a900473ffffffffffffffffffffffffffffffffffffffff16908060070160149054906101000a900460ff16905089565b828054600181600116156101000203166002900490600052602060002090601f016020900481019282601f10611cb257805160ff1916838001178555611ce0565b82800160010185558215611ce0579182015b82811115611cdf578251825591602001919060010190611cc4565b5b509050611ced9190611df8565b5090565b604051806102000160405280601090602082028038833980820191505090505090565b828054600181600116156101000203166002900490600052602060002090601f016020900481019282601f10611d5557805160ff1916838001178555611d83565b82800160010185558215611d83579182015b82811115611d82578251825591602001919060010190611d67565b5b509050611d909190611df8565b5090565b60405180610120016040528060008152602001606081526020016060815260200160008152602001606081526020016060815260200160008152602001600073ffffffffffffffffffffffffffffffffffffffff1681526020016000151581525090565b611e1a91905b80821115611e16576000816000905550600101611dfe565b5090565b9056fea265627a7a72315820e2c2ba653a0845414a664d61794bcc1283a8f54db4b8ce5e69e8c4452c3fe83364736f6c63430005100032",
  "source": "pragma solidity ^0.5.0;\r\n\r\n\r\n\r\n\r\n\r\n\r\n\r\n \r\ncontract Petshop {\r\n   \r\n   \r\n\r\n\r\n\r\n\r\n\r\n\r\n\r\n//1.petshop contract\r\n  address[16] public adopters;\r\n  // Adopting a pet\r\n  function adopt(uint petId) public returns (uint) {\r\n    require(petId >= 0 && petId <= 16);\r\n\r\n    adopters[petId] = msg.sender;\r\n\r\n    return petId;\r\n  }\r\n  // Retrieving the adopters\r\n  function getAdopters() public view returns (address[16] memory) {\r\n    return adopters;\r\n  }\r\n//petshop contract end\r\n\r\n//2.Add and buy pets\r\n\r\n    uint public petCount = 0;\r\n    mapping(uint => Pet) public pets;\r\n\r\n    //pet struct\r\n    struct Pet{\r\n      uint id;\r\n      string name;\r\n      string breed;\r\n      uint age;\r\n      string location;\r\n      string picture;\r\n      uint price;\r\n      address payable owner;\r\n      bool purchased;\r\n    }\r\n\r\n    //Event adding pet\r\n    event PetCreated(\r\n      uint id,\r\n      string name,\r\n      string breed,\r\n      uint age,\r\n      string location,\r\n      string picture,\r\n      uint price,\r\n      address payable owner,\r\n      bool purchased\r\n    );\r\n\r\n    //Eevent purchasing pet\r\n    event PetPurchased(\r\n      uint id,\r\n      string name,\r\n      string breed,\r\n      uint age,\r\n      string location,\r\n      string picture,\r\n      uint price,\r\n      address payable owner,\r\n      bool purchased\r\n    );\r\n\r\n    // Add pets\r\n    function createPet(string memory _name, string memory _breed, uint _age, string memory _location, string memory _picture, uint _price) public {\r\n      //Require\r\n      require(bytes(_name).length > 0);\r\n      require(bytes(_breed).length > 0);\r\n      require(_age > 0);\r\n      require(bytes(_location).length > 0);\r\n      require(bytes(_picture).length > 0);\r\n      require(_price > 0);\r\n      //count pet number\r\n      petCount ++;\r\n      //Create the pet\r\n      pets[petCount] = Pet(petCount, _name, _breed, _age, _location, _picture, _price, msg.sender, false);\r\n      //Trigger an event\r\n      emit PetCreated(petCount, _name, _breed, _age, _location, _picture, _price, msg.sender, false);\r\n    }\r\n\r\n    //Purchase Pets\r\n    function purchasePet(uint _id) public payable {\r\n      //Fetch the pet\r\n      Pet memory _pet = pets[_id];\r\n      //Fetch the owner\r\n      address payable _seller = _pet.owner;\r\n      //require a valid pet id\r\n      require(_pet.id > 0 && _pet.id <= petCount);\r\n      //require enough Ether in the transaction\r\n      require(msg.value >= _pet.price);\r\n      // require that the pet has not been purchased already\r\n      require(!_pet.purchased);\r\n      // Require that the buyer is not the seller\r\n      require(_seller != msg.sender);\r\n      // Transfer ownership to the buyer\r\n      _pet.owner = msg.sender;\r\n      // Mark as purchased\r\n      _pet.purchased = true;\r\n      // Update the pet\r\n      pets[_id] = _pet;\r\n      // Pay the seller by sending Ether\r\n      address(_seller).transfer(msg.value);\r\n      // Trigger an event\r\n      emit PetCreated(petCount, _pet.name, _pet.breed, _pet.age, _pet.location, _pet.picture, _pet.price, msg.sender, true);\r\n    }\r\n\r\n\r\n//3.Donation\r\n    string public functionCalled;\r\n\r\n    //function allowing an ether payment to the contract address\r\n      function receiveEther() external payable {\r\n      functionCalled = \"receiveEther\";\r\n    }\r\n\r\n    //fallback function allowing an ether payment to the contract address\r\n      function() external payable {\r\n      functionCalled = \"fallback\";\r\n    }\r\n\r\n\r\n\r\n//4.election contract\r\n\r\n\r\n  // Model a Candidate\r\n  struct Candidate {\r\n      uint id;\r\n      string name;\r\n      uint voteCount;\r\n  }\r\n\r\n  // Store accounts that have voted\r\n  mapping(address => bool) public voters;\r\n  // Store Candidates\r\n  // Fetch Candidate\r\n  mapping(uint => Candidate) public candidates;\r\n  // Store Candidates Count\r\n  uint public candidatesCount;\r\n\r\n  // voted event\r\n  event votedEvent (\r\n      uint indexed _candidateId\r\n  );\r\n\r\n  constructor () public {\r\n    addCandidate(\"petid 0\");\r\n    addCandidate(\"petid 1\");\r\n    addCandidate(\"petid 2\");\r\n    addCandidate(\"petid 3\");\r\n    addCandidate(\"petid 4\");\r\n    addCandidate(\"petid 5\");\r\n    addCandidate(\"petid 6\");\r\n    addCandidate(\"petid 7\");\r\n    addCandidate(\"petid 8\");\r\n    addCandidate(\"petid 9\");\r\n    addCandidate(\"petid 10\");\r\n    addCandidate(\"petid 11\");\r\n    addCandidate(\"petid 12\");\r\n    addCandidate(\"petid 13\");\r\n    addCandidate(\"petid 14\");\r\n    addCandidate(\"petid 15\");\r\n      \r\n  }\r\n\r\n  function addCandidate (string memory _name) private {\r\n    candidatesCount ++;\r\n    candidates[candidatesCount] = Candidate(candidatesCount, _name, 0);\r\n      \r\n  }\r\n\r\n  function vote (uint _candidateId) public {\r\n      // require that they haven't voted before\r\n      require(!voters[msg.sender]);\r\n\r\n      // require a valid candidate\r\n      require(_candidateId > 0 && _candidateId <= candidatesCount);\r\n\r\n      // record that voter has voted\r\n      voters[msg.sender] = true;\r\n\r\n      // update candidate vote Count\r\n      candidates[_candidateId].voteCount ++;\r\n\r\n      // trigger voted event\r\n      emit votedEvent(_candidateId);\r\n  }\r\n\r\n\r\n//election contract end\r\n\r\n\r\n\r\n\r\n\r\n}",
  "sourcePath": "F:/UofT/APS1050/PetShopDapp(A)/1.project/contracts/Petshop.sol",
  "compiler": {
    "name": "solc",
    "version": "0.5.16+commit.9c3226ce.Emscripten.clang"
  },
  "schemaVersion": "3.0.22",
  "updatedAt": "2021-08-30T06:16:39.627Z",
  "networkType": "ethereum",
  "devdoc": {
    "methods": {}
  },
  "userdoc": {
    "methods": {}
  }
}